{"abi":[{"type":"constructor","inputs":[],"stateMutability":"nonpayable"},{"type":"receive","stateMutability":"payable"},{"type":"function","name":"addBlockBuilder","inputs":[{"name":"blockBuilder","type":"address","internalType":"address"}],"outputs":[],"stateMutability":"nonpayable"},{"type":"function","name":"blobTipLedger","inputs":[{"name":"","type":"address","internalType":"address"}],"outputs":[{"name":"","type":"uint256","internalType":"uint256"}],"stateMutability":"view"},{"type":"function","name":"countBlobs","inputs":[],"outputs":[{"name":"","type":"uint256","internalType":"uint256"}],"stateMutability":"view"},{"type":"function","name":"owner","inputs":[],"outputs":[{"name":"","type":"address","internalType":"address"}],"stateMutability":"view"},{"type":"function","name":"submitBlob","inputs":[{"name":"tipPerBlob","type":"uint256","internalType":"uint256"},{"name":"blockNumber","type":"uint256","internalType":"uint256"},{"name":"blockBuilder","type":"address","internalType":"address"},{"name":"deadline","type":"uint256","internalType":"uint256"}],"outputs":[],"stateMutability":"payable"},{"type":"function","name":"withdrawTips","inputs":[],"outputs":[],"stateMutability":"nonpayable"},{"type":"event","name":"BlobSubmitted","inputs":[{"name":"submitter","type":"address","indexed":true,"internalType":"address"},{"name":"blobCount","type":"uint256","indexed":false,"internalType":"uint256"},{"name":"tipPerBlob","type":"uint256","indexed":false,"internalType":"uint256"},{"name":"blockBuilder","type":"address","indexed":true,"internalType":"address"},{"name":"blobNumber","type":"uint256","indexed":false,"internalType":"uint256"}],"anonymous":false},{"type":"event","name":"BlockBuilderAdded","inputs":[{"name":"blockBuilder","type":"address","indexed":true,"internalType":"address"}],"anonymous":false},{"type":"event","name":"Withdrawal","inputs":[{"name":"blockBuilder","type":"address","indexed":true,"internalType":"address"},{"name":"amount","type":"uint256","indexed":false,"internalType":"uint256"}],"anonymous":false}],"bytecode":{"object":"0x6080604052348015600e575f80fd5b505f80546001600160a01b031916331790556105708061002d5f395ff3fe608060405260043610610057575f3560e01c8063029c78f1146100625780633aaa74b2146100895780633e8a42081461009f5780638da5cb5b146100be57806396671bf8146100f4578063aad1cda414610107575f80fd5b3661005e57005b5f80fd5b34801561006d575f80fd5b50610076610132565b6040519081526020015b60405180910390f35b348015610094575f80fd5b5061009d610157565b005b3480156100aa575f80fd5b5061009d6100b9366004610484565b61021f565b3480156100c9575f80fd5b505f546100dc906001600160a01b031681565b6040516001600160a01b039091168152602001610080565b61009d6101023660046104a4565b6102c7565b348015610112575f80fd5b50610076610121366004610484565b60016020525f908152604090205481565b5f80805b50804980156101515781610149816104f2565b925050610136565b50919050565b335f90815260016020526040902054806101ae5760405162461bcd60e51b81526020600482015260136024820152724e6f207469707320746f20776974686472617760681b60448201526064015b60405180910390fd5b335f818152600160205260408082208290555183156108fc0291849190818181858888f193505050501580156101e6573d5f803e3d5ffd5b5060405181815233907f7fcf532c15f0a6db0bd6d0e038bea71d30d808c7d98cb3bf7268a95bf5081b659060200160405180910390a250565b6001600160a01b0381165f90815260016020526040902054156102845760405162461bcd60e51b815260206004820152601c60248201527f426c6f636b206275696c64657220616c7265616479206578697374730000000060448201526064016101a5565b6001600160a01b0381165f81815260016020526040808220829055517f5c57fb93385f8f51463339d7ed8bb6d229a0a602c0ce6bcf7b4c9d98071b4d3e9190a250565b5f6102d0610132565b90505f6102dd868361050a565b9050803410156103275760405162461bcd60e51b81526020600482015260156024820152740496e73756666696369656e7420626c6f622074697605c1b60448201526064016101a5565b438315610380576103388487610527565b81111561037b5760405162461bcd60e51b8152602060048201526011602482015270457863656564656420646561646c696e6560781b60448201526064016101a5565b6103e6565b8581146103e65760405162461bcd60e51b815260206004820152602e60248201527f4d75737420626520696e636c756465642061742074686520737065636966696560448201526d3210313637b1b590373ab6b132b960911b60648201526084016101a5565b6001600160a01b0385165f908152600160205260408120805484929061040d908490610527565b909155505060408051848152602081018990529081018790526001600160a01b0386169033907f5f7d44fcb8c13d70e09dc663661b9c23e39392a68d2a079e23d761e76b696f469060600160405180910390a350505050505050565b80356001600160a01b038116811461047f575f80fd5b919050565b5f60208284031215610494575f80fd5b61049d82610469565b9392505050565b5f805f80608085870312156104b7575f80fd5b84359350602085013592506104ce60408601610469565b9396929550929360600135925050565b634e487b7160e01b5f52601160045260245ffd5b5f60018201610503576105036104de565b5060010190565b8082028115828204841417610521576105216104de565b92915050565b80820180821115610521576105216104de56fea2646970667358221220014b967d95387d03733627cba77b3165488df3561ee42ef032f675f7fc81b31664736f6c634300081a0033","linkReferences":{}},"methodIdentifiers":{"addBlockBuilder(address)":"3e8a4208","blobTipLedger(address)":"aad1cda4","countBlobs()":"029c78f1","owner()":"8da5cb5b","submitBlob(uint256,uint256,address,uint256)":"96671bf8","withdrawTips()":"3aaa74b2"},"id":23}