{"abi":[{"type":"constructor","inputs":[],"stateMutability":"nonpayable"},{"type":"receive","stateMutability":"payable"},{"type":"function","name":"addBlockBuilder","inputs":[{"name":"blockBuilder","type":"address","internalType":"address"}],"outputs":[],"stateMutability":"nonpayable"},{"type":"function","name":"blobTipLedger","inputs":[{"name":"","type":"address","internalType":"address"}],"outputs":[{"name":"","type":"uint256","internalType":"uint256"}],"stateMutability":"view"},{"type":"function","name":"owner","inputs":[],"outputs":[{"name":"","type":"address","internalType":"address"}],"stateMutability":"view"},{"type":"function","name":"submitBlob","inputs":[{"name":"blobTip","type":"uint256","internalType":"uint256"},{"name":"blockNumber","type":"uint256","internalType":"uint256"},{"name":"blockBuilder","type":"address","internalType":"address"},{"name":"deadline","type":"uint256","internalType":"uint256"}],"outputs":[],"stateMutability":"payable"},{"type":"function","name":"withdrawTips","inputs":[],"outputs":[],"stateMutability":"nonpayable"},{"type":"event","name":"BlobSubmitted","inputs":[{"name":"submitter","type":"address","indexed":true,"internalType":"address"},{"name":"blobTip","type":"uint256","indexed":false,"internalType":"uint256"},{"name":"blockBuilder","type":"address","indexed":true,"internalType":"address"},{"name":"blobNumber","type":"uint256","indexed":false,"internalType":"uint256"}],"anonymous":false},{"type":"event","name":"BlockBuilderAdded","inputs":[{"name":"blockBuilder","type":"address","indexed":true,"internalType":"address"}],"anonymous":false},{"type":"event","name":"Withdrawal","inputs":[{"name":"blockBuilder","type":"address","indexed":true,"internalType":"address"},{"name":"amount","type":"uint256","indexed":false,"internalType":"uint256"}],"anonymous":false}],"bytecode":{"object":"0x6080604052348015600e575f80fd5b505f80546001600160a01b0319163317905561052c8061002d5f395ff3fe60806040526004361061004c575f3560e01c80633aaa74b2146100575780633e8a42081461006d5780638da5cb5b1461008c57806396671bf8146100c7578063aad1cda4146100da575f80fd5b3661005357005b5f80fd5b348015610062575f80fd5b5061006b610113565b005b348015610078575f80fd5b5061006b610087366004610477565b6101db565b348015610097575f80fd5b505f546100aa906001600160a01b031681565b6040516001600160a01b0390911681526020015b60405180910390f35b61006b6100d5366004610497565b6102dc565b3480156100e5575f80fd5b506101056100f4366004610477565b60016020525f908152604090205481565b6040519081526020016100be565b335f908152600160205260409020548061016a5760405162461bcd60e51b81526020600482015260136024820152724e6f207469707320746f20776974686472617760681b60448201526064015b60405180910390fd5b335f818152600160205260408082208290555183156108fc0291849190818181858888f193505050501580156101a2573d5f803e3d5ffd5b5060405181815233907f7fcf532c15f0a6db0bd6d0e038bea71d30d808c7d98cb3bf7268a95bf5081b659060200160405180910390a250565b5f546001600160a01b031633146102345760405162461bcd60e51b815260206004820152601760248201527f43616c6c6572206973206e6f7420746865206f776e65720000000000000000006044820152606401610161565b6001600160a01b0381165f90815260016020526040902054156102995760405162461bcd60e51b815260206004820152601c60248201527f426c6f636b206275696c64657220616c726561647920657869737473000000006044820152606401610161565b6001600160a01b0381165f81815260016020526040808220829055517f5c57fb93385f8f51463339d7ed8bb6d229a0a602c0ce6bcf7b4c9d98071b4d3e9190a250565b833410156103245760405162461bcd60e51b81526020600482015260156024820152740496e73756666696369656e7420626c6f622074697605c1b6044820152606401610161565b43811561037d5761033582856104d1565b8111156103785760405162461bcd60e51b8152602060048201526011602482015270457863656564656420646561646c696e6560781b6044820152606401610161565b6103e3565b8381146103e35760405162461bcd60e51b815260206004820152602e60248201527f4d75737420626520696e636c756465642061742074686520737065636966696560448201526d3210313637b1b590373ab6b132b960911b6064820152608401610161565b6001600160a01b0383165f908152600160205260408120805487929061040a9084906104d1565b909155505060408051868152602081018690526001600160a01b0385169133917f7a5e65b2d5eb8385cc4bff563cf417ac570a92922bcb37c870f5beff7b6af603910160405180910390a35050505050565b80356001600160a01b0381168114610472575f80fd5b919050565b5f60208284031215610487575f80fd5b6104908261045c565b9392505050565b5f805f80608085870312156104aa575f80fd5b84359350602085013592506104c16040860161045c565b9396929550929360600135925050565b808201808211156104f057634e487b7160e01b5f52601160045260245ffd5b9291505056fea26469706673582212204cabbb67b9db8d43123b6aed8cf7b4f9d30d6b2444e62ccfd186c314aee1b21264736f6c634300081a0033","linkReferences":{}},"methodIdentifiers":{"addBlockBuilder(address)":"3e8a4208","blobTipLedger(address)":"aad1cda4","owner()":"8da5cb5b","submitBlob(uint256,uint256,address,uint256)":"96671bf8","withdrawTips()":"3aaa74b2"},"id":23}